{
  "_format": "hh-sol-artifact-1",
  "contractName": "MedData",
  "sourceName": "contracts/DocNet.sol",
  "abi": [
    {
      "inputs": [
        {
          "internalType": "address",
          "name": "_patientAddr",
          "type": "address"
        },
        {
          "internalType": "string",
          "name": "_encryptedData",
          "type": "string"
        }
      ],
      "name": "editData",
      "outputs": [],
      "stateMutability": "nonpayable",
      "type": "function"
    },
    {
      "inputs": [
        {
          "internalType": "address",
          "name": "",
          "type": "address"
        }
      ],
      "name": "patientData",
      "outputs": [
        {
          "internalType": "string",
          "name": "encryptedData",
          "type": "string"
        }
      ],
      "stateMutability": "view",
      "type": "function"
    },
    {
      "inputs": [
        {
          "internalType": "address",
          "name": "_editor",
          "type": "address"
        },
        {
          "internalType": "bool",
          "name": "_canEdit",
          "type": "bool"
        }
      ],
      "name": "updateEditPermissions",
      "outputs": [],
      "stateMutability": "nonpayable",
      "type": "function"
    }
  ],
  "bytecode": "0x608060405234801561001057600080fd5b50610882806100206000396000f3fe608060405234801561001057600080fd5b50600436106100415760003560e01c80631e006c67146100465780632e608c0214610062578063e04f52dd14610092575b600080fd5b610060600480360381019061005b9190610375565b6100ae565b005b61007c600480360381019061007791906103d5565b610162565b6040516100899190610492565b60405180910390f35b6100ac60048036038101906100a791906104ec565b610208565b005b60008060008573ffffffffffffffffffffffffffffffffffffffff1673ffffffffffffffffffffffffffffffffffffffff16815260200190815260200160002090508060000160003373ffffffffffffffffffffffffffffffffffffffff1673ffffffffffffffffffffffffffffffffffffffff16815260200190815260200160002060009054906101000a900460ff1661014857600080fd5b828282600101918261015b92919061077c565b5050505050565b600060205280600052604060002060009150905080600101805461018590610595565b80601f01602080910402602001604051908101604052809291908181526020018280546101b190610595565b80156101fe5780601f106101d3576101008083540402835291602001916101fe565b820191906000526020600020905b8154815290600101906020018083116101e157829003601f168201915b5050505050905081565b60008060003373ffffffffffffffffffffffffffffffffffffffff1673ffffffffffffffffffffffffffffffffffffffff1681526020019081526020016000209050818160000160008573ffffffffffffffffffffffffffffffffffffffff1673ffffffffffffffffffffffffffffffffffffffff16815260200190815260200160002060006101000a81548160ff021916908315150217905550505050565b600080fd5b600080fd5b600073ffffffffffffffffffffffffffffffffffffffff82169050919050565b60006102dd826102b2565b9050919050565b6102ed816102d2565b81146102f857600080fd5b50565b60008135905061030a816102e4565b92915050565b600080fd5b600080fd5b600080fd5b60008083601f84011261033557610334610310565b5b8235905067ffffffffffffffff81111561035257610351610315565b5b60208301915083600182028301111561036e5761036d61031a565b5b9250929050565b60008060006040848603121561038e5761038d6102a8565b5b600061039c868287016102fb565b935050602084013567ffffffffffffffff8111156103bd576103bc6102ad565b5b6103c98682870161031f565b92509250509250925092565b6000602082840312156103eb576103ea6102a8565b5b60006103f9848285016102fb565b91505092915050565b600081519050919050565b600082825260208201905092915050565b60005b8381101561043c578082015181840152602081019050610421565b60008484015250505050565b6000601f19601f8301169050919050565b600061046482610402565b61046e818561040d565b935061047e81856020860161041e565b61048781610448565b840191505092915050565b600060208201905081810360008301526104ac8184610459565b905092915050565b60008115159050919050565b6104c9816104b4565b81146104d457600080fd5b50565b6000813590506104e6816104c0565b92915050565b60008060408385031215610503576105026102a8565b5b6000610511858286016102fb565b9250506020610522858286016104d7565b9150509250929050565b600082905092915050565b7f4e487b7100000000000000000000000000000000000000000000000000000000600052604160045260246000fd5b7f4e487b7100000000000000000000000000000000000000000000000000000000600052602260045260246000fd5b600060028204905060018216806105ad57607f821691505b6020821081036105c0576105bf610566565b5b50919050565b60008190508160005260206000209050919050565b60006020601f8301049050919050565b600082821b905092915050565b6000600883026106287fffffffffffffffffffffffffffffffffffffffffffffffffffffffffffffffff826105eb565b61063286836105eb565b95508019841693508086168417925050509392505050565b6000819050919050565b6000819050919050565b600061067961067461066f8461064a565b610654565b61064a565b9050919050565b6000819050919050565b6106938361065e565b6106a761069f82610680565b8484546105f8565b825550505050565b600090565b6106bc6106af565b6106c781848461068a565b505050565b5b818110156106eb576106e06000826106b4565b6001810190506106cd565b5050565b601f82111561073057610701816105c6565b61070a846105db565b81016020851015610719578190505b61072d610725856105db565b8301826106cc565b50505b505050565b600082821c905092915050565b600061075360001984600802610735565b1980831691505092915050565b600061076c8383610742565b9150826002028217905092915050565b610786838361052c565b67ffffffffffffffff81111561079f5761079e610537565b5b6107a98254610595565b6107b48282856106ef565b6000601f8311600181146107e357600084156107d1578287013590505b6107db8582610760565b865550610843565b601f1984166107f1866105c6565b60005b82811015610819578489013582556001820191506020850194506020810190506107f4565b868310156108365784890135610832601f891682610742565b8355505b6001600288020188555050505b5050505050505056fea26469706673582212204003906a5d1659d3cc210e35454ea297005fffb365b7dce39d815fbca7a2c35264736f6c63430008180033",
  "linkReferences": {},
  "deployedLinkReferences": {}
}